{
  "_format": "hh-sol-artifact-1",
  "contractName": "MyNFT",
  "sourceName": "contracts/MyNFT.sol",
  "abi": [
    {
      "inputs": [],
      "stateMutability": "nonpayable",
      "type": "constructor"
    },
    {
      "anonymous": false,
      "inputs": [
        {
          "indexed": true,
          "internalType": "address",
          "name": "owner",
          "type": "address"
        },
        {
          "indexed": true,
          "internalType": "address",
          "name": "approved",
          "type": "address"
        },
        {
          "indexed": true,
          "internalType": "uint256",
          "name": "tokenId",
          "type": "uint256"
        }
      ],
      "name": "Approval",
      "type": "event"
    },
    {
      "anonymous": false,
      "inputs": [
        {
          "indexed": true,
          "internalType": "address",
          "name": "owner",
          "type": "address"
        },
        {
          "indexed": true,
          "internalType": "address",
          "name": "operator",
          "type": "address"
        },
        {
          "indexed": false,
          "internalType": "bool",
          "name": "approved",
          "type": "bool"
        }
      ],
      "name": "ApprovalForAll",
      "type": "event"
    },
    {
      "anonymous": false,
      "inputs": [
        {
          "indexed": true,
          "internalType": "address",
          "name": "previousOwner",
          "type": "address"
        },
        {
          "indexed": true,
          "internalType": "address",
          "name": "newOwner",
          "type": "address"
        }
      ],
      "name": "OwnershipTransferred",
      "type": "event"
    },
    {
      "anonymous": false,
      "inputs": [
        {
          "indexed": true,
          "internalType": "address",
          "name": "from",
          "type": "address"
        },
        {
          "indexed": true,
          "internalType": "address",
          "name": "to",
          "type": "address"
        },
        {
          "indexed": true,
          "internalType": "uint256",
          "name": "tokenId",
          "type": "uint256"
        }
      ],
      "name": "Transfer",
      "type": "event"
    },
    {
      "inputs": [
        {
          "internalType": "address",
          "name": "to",
          "type": "address"
        },
        {
          "internalType": "uint256",
          "name": "tokenId",
          "type": "uint256"
        }
      ],
      "name": "approve",
      "outputs": [],
      "stateMutability": "nonpayable",
      "type": "function"
    },
    {
      "inputs": [
        {
          "internalType": "address",
          "name": "owner",
          "type": "address"
        }
      ],
      "name": "balanceOf",
      "outputs": [
        {
          "internalType": "uint256",
          "name": "",
          "type": "uint256"
        }
      ],
      "stateMutability": "view",
      "type": "function"
    },
    {
      "inputs": [],
      "name": "balanceReceived",
      "outputs": [
        {
          "internalType": "uint256",
          "name": "",
          "type": "uint256"
        }
      ],
      "stateMutability": "view",
      "type": "function"
    },
    {
      "inputs": [],
      "name": "baseURI",
      "outputs": [
        {
          "internalType": "string",
          "name": "",
          "type": "string"
        }
      ],
      "stateMutability": "view",
      "type": "function"
    },
    {
      "inputs": [
        {
          "internalType": "uint256",
          "name": "tokenId",
          "type": "uint256"
        }
      ],
      "name": "getApproved",
      "outputs": [
        {
          "internalType": "address",
          "name": "",
          "type": "address"
        }
      ],
      "stateMutability": "view",
      "type": "function"
    },
    {
      "inputs": [],
      "name": "getBalance",
      "outputs": [
        {
          "internalType": "uint256",
          "name": "",
          "type": "uint256"
        }
      ],
      "stateMutability": "view",
      "type": "function"
    },
    {
      "inputs": [
        {
          "internalType": "address",
          "name": "owner",
          "type": "address"
        },
        {
          "internalType": "address",
          "name": "operator",
          "type": "address"
        }
      ],
      "name": "isApprovedForAll",
      "outputs": [
        {
          "internalType": "bool",
          "name": "",
          "type": "bool"
        }
      ],
      "stateMutability": "view",
      "type": "function"
    },
    {
      "inputs": [
        {
          "internalType": "address",
          "name": "recipient",
          "type": "address"
        }
      ],
      "name": "mintNFT",
      "outputs": [
        {
          "internalType": "uint256",
          "name": "",
          "type": "uint256"
        }
      ],
      "stateMutability": "payable",
      "type": "function"
    },
    {
      "inputs": [],
      "name": "name",
      "outputs": [
        {
          "internalType": "string",
          "name": "",
          "type": "string"
        }
      ],
      "stateMutability": "view",
      "type": "function"
    },
    {
      "inputs": [],
      "name": "owner",
      "outputs": [
        {
          "internalType": "address",
          "name": "",
          "type": "address"
        }
      ],
      "stateMutability": "view",
      "type": "function"
    },
    {
      "inputs": [
        {
          "internalType": "uint256",
          "name": "tokenId",
          "type": "uint256"
        }
      ],
      "name": "ownerOf",
      "outputs": [
        {
          "internalType": "address",
          "name": "",
          "type": "address"
        }
      ],
      "stateMutability": "view",
      "type": "function"
    },
    {
      "inputs": [],
      "name": "renounceOwnership",
      "outputs": [],
      "stateMutability": "nonpayable",
      "type": "function"
    },
    {
      "inputs": [
        {
          "internalType": "address",
          "name": "from",
          "type": "address"
        },
        {
          "internalType": "address",
          "name": "to",
          "type": "address"
        },
        {
          "internalType": "uint256",
          "name": "tokenId",
          "type": "uint256"
        }
      ],
      "name": "safeTransferFrom",
      "outputs": [],
      "stateMutability": "nonpayable",
      "type": "function"
    },
    {
      "inputs": [
        {
          "internalType": "address",
          "name": "from",
          "type": "address"
        },
        {
          "internalType": "address",
          "name": "to",
          "type": "address"
        },
        {
          "internalType": "uint256",
          "name": "tokenId",
          "type": "uint256"
        },
        {
          "internalType": "bytes",
          "name": "_data",
          "type": "bytes"
        }
      ],
      "name": "safeTransferFrom",
      "outputs": [],
      "stateMutability": "nonpayable",
      "type": "function"
    },
    {
      "inputs": [
        {
          "internalType": "address",
          "name": "operator",
          "type": "address"
        },
        {
          "internalType": "bool",
          "name": "approved",
          "type": "bool"
        }
      ],
      "name": "setApprovalForAll",
      "outputs": [],
      "stateMutability": "nonpayable",
      "type": "function"
    },
    {
      "inputs": [
        {
          "internalType": "bytes4",
          "name": "interfaceId",
          "type": "bytes4"
        }
      ],
      "name": "supportsInterface",
      "outputs": [
        {
          "internalType": "bool",
          "name": "",
          "type": "bool"
        }
      ],
      "stateMutability": "view",
      "type": "function"
    },
    {
      "inputs": [],
      "name": "symbol",
      "outputs": [
        {
          "internalType": "string",
          "name": "",
          "type": "string"
        }
      ],
      "stateMutability": "view",
      "type": "function"
    },
    {
      "inputs": [
        {
          "internalType": "uint256",
          "name": "index",
          "type": "uint256"
        }
      ],
      "name": "tokenByIndex",
      "outputs": [
        {
          "internalType": "uint256",
          "name": "",
          "type": "uint256"
        }
      ],
      "stateMutability": "view",
      "type": "function"
    },
    {
      "inputs": [
        {
          "internalType": "address",
          "name": "owner",
          "type": "address"
        },
        {
          "internalType": "uint256",
          "name": "index",
          "type": "uint256"
        }
      ],
      "name": "tokenOfOwnerByIndex",
      "outputs": [
        {
          "internalType": "uint256",
          "name": "",
          "type": "uint256"
        }
      ],
      "stateMutability": "view",
      "type": "function"
    },
    {
      "inputs": [
        {
          "internalType": "uint256",
          "name": "tokenId",
          "type": "uint256"
        }
      ],
      "name": "tokenURI",
      "outputs": [
        {
          "internalType": "string",
          "name": "",
          "type": "string"
        }
      ],
      "stateMutability": "view",
      "type": "function"
    },
    {
      "inputs": [],
      "name": "totalSupply",
      "outputs": [
        {
          "internalType": "uint256",
          "name": "",
          "type": "uint256"
        }
      ],
      "stateMutability": "view",
      "type": "function"
    },
    {
      "inputs": [
        {
          "internalType": "address",
          "name": "from",
          "type": "address"
        },
        {
          "internalType": "address",
          "name": "to",
          "type": "address"
        },
        {
          "internalType": "uint256",
          "name": "tokenId",
          "type": "uint256"
        }
      ],
      "name": "transferFrom",
      "outputs": [],
      "stateMutability": "nonpayable",
      "type": "function"
    },
    {
      "inputs": [
        {
          "internalType": "address",
          "name": "newOwner",
          "type": "address"
        }
      ],
      "name": "transferOwnership",
      "outputs": [],
      "stateMutability": "nonpayable",
      "type": "function"
    },
    {
      "inputs": [],
      "name": "withdrawMoney",
      "outputs": [],
      "stateMutability": "nonpayable",
      "type": "function"
    }
  ],
  "bytecode": "0x60806040526040518060a001604052806040518060800160405280605081526020016200389060509139815260200160405180608001604052806050815260200162003980605091398152602001604051806080016040528060508152602001620038e0605091398152602001604051806080016040528060508152602001620039d06050913981526020016040518060800160405280605081526020016200393060509139815250600d906005620000ba92919062000391565b50348015620000c857600080fd5b506040518060400160405280600981526020017f53514e43535f4e465400000000000000000000000000000000000000000000008152506040518060400160405280600381526020017f4e465400000000000000000000000000000000000000000000000000000000008152506200014d6301ffc9a760e01b6200028060201b60201c565b816006908051906020019062000165929190620003f8565b5080600790805190602001906200017e929190620003f8565b50620001976380ac58cd60e01b6200028060201b60201c565b620001af635b5e139f60e01b6200028060201b60201c565b620001c763780e9d6360e01b6200028060201b60201c565b50506000620001db6200038960201b60201c565b905080600a60006101000a81548173ffffffffffffffffffffffffffffffffffffffff021916908373ffffffffffffffffffffffffffffffffffffffff1602179055508073ffffffffffffffffffffffffffffffffffffffff16600073ffffffffffffffffffffffffffffffffffffffff167f8be0079c531659141344cd1fd0a4f28419497f9722a3daafe3b4186f6b6457e060405160405180910390a35062000512565b63ffffffff60e01b817bffffffffffffffffffffffffffffffffffffffffffffffffffffffff191614156200031d576040517f08c379a000000000000000000000000000000000000000000000000000000000815260040180806020018281038252601c8152602001807f4552433136353a20696e76616c696420696e746572666163652069640000000081525060200191505060405180910390fd5b6001600080837bffffffffffffffffffffffffffffffffffffffffffffffffffffffff19167bffffffffffffffffffffffffffffffffffffffffffffffffffffffff1916815260200190815260200160002060006101000a81548160ff02191690831515021790555050565b600033905090565b828054828255906000526020600020908101928215620003e5579160200282015b82811115620003e4578251829080519060200190620003d3929190620003f8565b5091602001919060010190620003b2565b5b509050620003f491906200047f565b5090565b828054600181600116156101000203166002900490600052602060002090601f016020900481019282601f106200043b57805160ff19168380011785556200046c565b828001600101855582156200046c579182015b828111156200046b5782518255916020019190600101906200044e565b5b5090506200047b9190620004a7565b5090565b5b80821115620004a35760008181620004999190620004c6565b5060010162000480565b5090565b5b80821115620004c2576000816000905550600101620004a8565b5090565b50805460018160011615610100020316600290046000825580601f10620004ee57506200050f565b601f0160209004906000526020600020908101906200050e9190620004a7565b5b50565b61336e80620005226000396000f3fe60806040526004361061014b5760003560e01c80636352211e116100b6578063a22cb4651161006f578063a22cb465146107df578063ac4460021461083c578063b88d4fde14610853578063c87b56dd14610965578063e985e9c514610a19578063f2fde38b14610aa05761014b565b80636352211e1461059d5780636c0360eb1461060257806370a0823114610692578063715018a6146106f75780638da5cb5b1461070e57806395d89b411461074f5761014b565b806323b872dd1161010857806323b872dd146103665780632f745c59146103e157806342842e0e146104505780634f6ccce7146104cb57806352a90c421461051a57806354ba0f27146105455761014b565b806301ffc9a71461015057806306fdde03146101c0578063081812fc14610250578063095ea7b3146102b557806312065fe01461031057806318160ddd1461033b575b600080fd5b34801561015c57600080fd5b506101a86004803603602081101561017357600080fd5b8101908080357bffffffffffffffffffffffffffffffffffffffffffffffffffffffff19169060200190929190505050610af1565b60405180821515815260200191505060405180910390f35b3480156101cc57600080fd5b506101d5610b58565b6040518080602001828103825283818151815260200191508051906020019080838360005b838110156102155780820151818401526020810190506101fa565b50505050905090810190601f1680156102425780820380516001836020036101000a031916815260200191505b509250505060405180910390f35b34801561025c57600080fd5b506102896004803603602081101561027357600080fd5b8101908080359060200190929190505050610bfa565b604051808273ffffffffffffffffffffffffffffffffffffffff16815260200191505060405180910390f35b3480156102c157600080fd5b5061030e600480360360408110156102d857600080fd5b81019080803573ffffffffffffffffffffffffffffffffffffffff16906020019092919080359060200190929190505050610c95565b005b34801561031c57600080fd5b50610325610dd9565b6040518082815260200191505060405180910390f35b34801561034757600080fd5b50610350610de1565b6040518082815260200191505060405180910390f35b34801561037257600080fd5b506103df6004803603606081101561038957600080fd5b81019080803573ffffffffffffffffffffffffffffffffffffffff169060200190929190803573ffffffffffffffffffffffffffffffffffffffff16906020019092919080359060200190929190505050610df2565b005b3480156103ed57600080fd5b5061043a6004803603604081101561040457600080fd5b81019080803573ffffffffffffffffffffffffffffffffffffffff16906020019092919080359060200190929190505050610e68565b6040518082815260200191505060405180910390f35b34801561045c57600080fd5b506104c96004803603606081101561047357600080fd5b81019080803573ffffffffffffffffffffffffffffffffffffffff169060200190929190803573ffffffffffffffffffffffffffffffffffffffff16906020019092919080359060200190929190505050610ec3565b005b3480156104d757600080fd5b50610504600480360360208110156104ee57600080fd5b8101908080359060200190929190505050610ee3565b6040518082815260200191505060405180910390f35b34801561052657600080fd5b5061052f610f06565b6040518082815260200191505060405180910390f35b6105876004803603602081101561055b57600080fd5b81019080803573ffffffffffffffffffffffffffffffffffffffff169060200190929190505050610f0c565b6040518082815260200191505060405180910390f35b3480156105a957600080fd5b506105d6600480360360208110156105c057600080fd5b8101908080359060200190929190505050611066565b604051808273ffffffffffffffffffffffffffffffffffffffff16815260200191505060405180910390f35b34801561060e57600080fd5b5061061761109d565b6040518080602001828103825283818151815260200191508051906020019080838360005b8381101561065757808201518184015260208101905061063c565b50505050905090810190601f1680156106845780820380516001836020036101000a031916815260200191505b509250505060405180910390f35b34801561069e57600080fd5b506106e1600480360360208110156106b557600080fd5b81019080803573ffffffffffffffffffffffffffffffffffffffff16906020019092919050505061113f565b6040518082815260200191505060405180910390f35b34801561070357600080fd5b5061070c611214565b005b34801561071a57600080fd5b5061072361139f565b604051808273ffffffffffffffffffffffffffffffffffffffff16815260200191505060405180910390f35b34801561075b57600080fd5b506107646113c9565b6040518080602001828103825283818151815260200191508051906020019080838360005b838110156107a4578082015181840152602081019050610789565b50505050905090810190601f1680156107d15780820380516001836020036101000a031916815260200191505b509250505060405180910390f35b3480156107eb57600080fd5b5061083a6004803603604081101561080257600080fd5b81019080803573ffffffffffffffffffffffffffffffffffffffff16906020019092919080351515906020019092919050505061146b565b005b34801561084857600080fd5b50610851611621565b005b34801561085f57600080fd5b506109636004803603608081101561087657600080fd5b81019080803573ffffffffffffffffffffffffffffffffffffffff169060200190929190803573ffffffffffffffffffffffffffffffffffffffff16906020019092919080359060200190929190803590602001906401000000008111156108dd57600080fd5b8201836020820111156108ef57600080fd5b8035906020019184600183028401116401000000008311171561091157600080fd5b91908080601f016020809104026020016040519081016040528093929190818152602001838380828437600081840152601f19601f820116905080830192505050505050509192919290505050611741565b005b34801561097157600080fd5b5061099e6004803603602081101561098857600080fd5b81019080803590602001909291905050506117b9565b6040518080602001828103825283818151815260200191508051906020019080838360005b838110156109de5780820151818401526020810190506109c3565b50505050905090810190601f168015610a0b5780820380516001836020036101000a031916815260200191505b509250505060405180910390f35b348015610a2557600080fd5b50610a8860048036036040811015610a3c57600080fd5b81019080803573ffffffffffffffffffffffffffffffffffffffff169060200190929190803573ffffffffffffffffffffffffffffffffffffffff169060200190929190505050611aa2565b60405180821515815260200191505060405180910390f35b348015610aac57600080fd5b50610aef60048036036020811015610ac357600080fd5b81019080803573ffffffffffffffffffffffffffffffffffffffff169060200190929190505050611b36565b005b6000806000837bffffffffffffffffffffffffffffffffffffffffffffffffffffffff19167bffffffffffffffffffffffffffffffffffffffffffffffffffffffff1916815260200190815260200160002060009054906101000a900460ff169050919050565b606060068054600181600116156101000203166002900480601f016020809104026020016040519081016040528092919081815260200182805460018160011615610100020316600290048015610bf05780601f10610bc557610100808354040283529160200191610bf0565b820191906000526020600020905b815481529060010190602001808311610bd357829003601f168201915b5050505050905090565b6000610c0582611d46565b610c5a576040517f08c379a000000000000000000000000000000000000000000000000000000000815260040180806020018281038252602c815260200180613212602c913960400191505060405180910390fd5b6004600083815260200190815260200160002060009054906101000a900473ffffffffffffffffffffffffffffffffffffffff169050919050565b6000610ca082611066565b90508073ffffffffffffffffffffffffffffffffffffffff168373ffffffffffffffffffffffffffffffffffffffff161415610d27576040517f08c379a00000000000000000000000000000000000000000000000000000000081526004018080602001828103825260218152602001806132c26021913960400191505060405180910390fd5b8073ffffffffffffffffffffffffffffffffffffffff16610d46611d63565b73ffffffffffffffffffffffffffffffffffffffff161480610d755750610d7481610d6f611d63565b611aa2565b5b610dca576040517f08c379a00000000000000000000000000000000000000000000000000000000081526004018080602001828103825260388152602001806131656038913960400191505060405180910390fd5b610dd48383611d6b565b505050565b600047905090565b6000610ded6002611e24565b905090565b610e03610dfd611d63565b82611e39565b610e58576040517f08c379a00000000000000000000000000000000000000000000000000000000081526004018080602001828103825260318152602001806132e36031913960400191505060405180910390fd5b610e63838383611f2d565b505050565b6000610ebb82600160008673ffffffffffffffffffffffffffffffffffffffff1673ffffffffffffffffffffffffffffffffffffffff16815260200190815260200160002061217090919063ffffffff16565b905092915050565b610ede83838360405180602001604052806000815250611741565b505050565b600080610efa83600261218a90919063ffffffff16565b50905080915050919050565b600c5481565b6000600a341015610f68576040517f08c379a00000000000000000000000000000000000000000000000000000000081526004018080602001828103825260258152602001806133146025913960400191505060405180910390fd5b34600c60008282540192505081905550610f82600b6121b6565b6000610f8e600b6121cc565b9050610f9a83826121da565b61105d81600d60058481610faa57fe5b0681548110610fb557fe5b906000526020600020018054600181600116156101000203166002900480601f0160208091040260200160405190810160405280929190818152602001828054600181600116156101000203166002900480156110535780601f1061102857610100808354040283529160200191611053565b820191906000526020600020905b81548152906001019060200180831161103657829003601f168201915b50505050506123ce565b80915050919050565b6000611096826040518060600160405280602981526020016131c76029913960026124589092919063ffffffff16565b9050919050565b606060098054600181600116156101000203166002900480601f0160208091040260200160405190810160405280929190818152602001828054600181600116156101000203166002900480156111355780601f1061110a57610100808354040283529160200191611135565b820191906000526020600020905b81548152906001019060200180831161111857829003601f168201915b5050505050905090565b60008073ffffffffffffffffffffffffffffffffffffffff168273ffffffffffffffffffffffffffffffffffffffff1614156111c6576040517f08c379a000000000000000000000000000000000000000000000000000000000815260040180806020018281038252602a81526020018061319d602a913960400191505060405180910390fd5b61120d600160008473ffffffffffffffffffffffffffffffffffffffff1673ffffffffffffffffffffffffffffffffffffffff168152602001908152602001600020612477565b9050919050565b61121c611d63565b73ffffffffffffffffffffffffffffffffffffffff16600a60009054906101000a900473ffffffffffffffffffffffffffffffffffffffff1673ffffffffffffffffffffffffffffffffffffffff16146112de576040517f08c379a00000000000000000000000000000000000000000000000000000000081526004018080602001828103825260208152602001807f4f776e61626c653a2063616c6c6572206973206e6f7420746865206f776e657281525060200191505060405180910390fd5b600073ffffffffffffffffffffffffffffffffffffffff16600a60009054906101000a900473ffffffffffffffffffffffffffffffffffffffff1673ffffffffffffffffffffffffffffffffffffffff167f8be0079c531659141344cd1fd0a4f28419497f9722a3daafe3b4186f6b6457e060405160405180910390a36000600a60006101000a81548173ffffffffffffffffffffffffffffffffffffffff021916908373ffffffffffffffffffffffffffffffffffffffff160217905550565b6000600a60009054906101000a900473ffffffffffffffffffffffffffffffffffffffff16905090565b606060078054600181600116156101000203166002900480601f0160208091040260200160405190810160405280929190818152602001828054600181600116156101000203166002900480156114615780601f1061143657610100808354040283529160200191611461565b820191906000526020600020905b81548152906001019060200180831161144457829003601f168201915b5050505050905090565b611473611d63565b73ffffffffffffffffffffffffffffffffffffffff168273ffffffffffffffffffffffffffffffffffffffff161415611514576040517f08c379a00000000000000000000000000000000000000000000000000000000081526004018080602001828103825260198152602001807f4552433732313a20617070726f766520746f2063616c6c65720000000000000081525060200191505060405180910390fd5b8060056000611521611d63565b73ffffffffffffffffffffffffffffffffffffffff1673ffffffffffffffffffffffffffffffffffffffff16815260200190815260200160002060008473ffffffffffffffffffffffffffffffffffffffff1673ffffffffffffffffffffffffffffffffffffffff16815260200190815260200160002060006101000a81548160ff0219169083151502179055508173ffffffffffffffffffffffffffffffffffffffff166115ce611d63565b73ffffffffffffffffffffffffffffffffffffffff167f17307eab39ab6107e8899845ad3d59bd9653f200f220920489ca2b5937696c318360405180821515815260200191505060405180910390a35050565b611629611d63565b73ffffffffffffffffffffffffffffffffffffffff16600a60009054906101000a900473ffffffffffffffffffffffffffffffffffffffff1673ffffffffffffffffffffffffffffffffffffffff16146116eb576040517f08c379a00000000000000000000000000000000000000000000000000000000081526004018080602001828103825260208152602001807f4f776e61626c653a2063616c6c6572206973206e6f7420746865206f776e657281525060200191505060405180910390fd5b60003390508073ffffffffffffffffffffffffffffffffffffffff166108fc611712610dd9565b9081150290604051600060405180830381858888f1935050505015801561173d573d6000803e3d6000fd5b5050565b61175261174c611d63565b83611e39565b6117a7576040517f08c379a00000000000000000000000000000000000000000000000000000000081526004018080602001828103825260318152602001806132e36031913960400191505060405180910390fd5b6117b38484848461248c565b50505050565b60606117c482611d46565b611819576040517f08c379a000000000000000000000000000000000000000000000000000000000815260040180806020018281038252602f815260200180613293602f913960400191505060405180910390fd5b6060600860008481526020019081526020016000208054600181600116156101000203166002900480601f0160208091040260200160405190810160405280929190818152602001828054600181600116156101000203166002900480156118c25780601f10611897576101008083540402835291602001916118c2565b820191906000526020600020905b8154815290600101906020018083116118a557829003601f168201915b505050505090506000600980546001816001161561010002031660029004905014156118f15780915050611a9d565b6000815111156119ca57600981604051602001808380546001816001161561010002031660029004801561195c5780601f1061193a57610100808354040283529182019161195c565b820191906000526020600020905b815481529060010190602001808311611948575b505082805190602001908083835b6020831061198d578051825260208201915060208101905060208303925061196a565b6001836020036101000a03801982511681845116808217855250505050505090500192505050604051602081830303815290604052915050611a9d565b60096119d5846124fe565b6040516020018083805460018160011615610100020316600290048015611a335780601f10611a11576101008083540402835291820191611a33565b820191906000526020600020905b815481529060010190602001808311611a1f575b505082805190602001908083835b60208310611a645780518252602082019150602081019050602083039250611a41565b6001836020036101000a038019825116818451168082178552505050505050905001925050506040516020818303038152906040529150505b919050565b6000600560008473ffffffffffffffffffffffffffffffffffffffff1673ffffffffffffffffffffffffffffffffffffffff16815260200190815260200160002060008373ffffffffffffffffffffffffffffffffffffffff1673ffffffffffffffffffffffffffffffffffffffff16815260200190815260200160002060009054906101000a900460ff16905092915050565b611b3e611d63565b73ffffffffffffffffffffffffffffffffffffffff16600a60009054906101000a900473ffffffffffffffffffffffffffffffffffffffff1673ffffffffffffffffffffffffffffffffffffffff1614611c00576040517f08c379a00000000000000000000000000000000000000000000000000000000081526004018080602001828103825260208152602001807f4f776e61626c653a2063616c6c6572206973206e6f7420746865206f776e657281525060200191505060405180910390fd5b600073ffffffffffffffffffffffffffffffffffffffff168173ffffffffffffffffffffffffffffffffffffffff161415611c86576040517f08c379a00000000000000000000000000000000000000000000000000000000081526004018080602001828103825260268152602001806130ef6026913960400191505060405180910390fd5b8073ffffffffffffffffffffffffffffffffffffffff16600a60009054906101000a900473ffffffffffffffffffffffffffffffffffffffff1673ffffffffffffffffffffffffffffffffffffffff167f8be0079c531659141344cd1fd0a4f28419497f9722a3daafe3b4186f6b6457e060405160405180910390a380600a60006101000a81548173ffffffffffffffffffffffffffffffffffffffff021916908373ffffffffffffffffffffffffffffffffffffffff16021790555050565b6000611d5c82600261264590919063ffffffff16565b9050919050565b600033905090565b816004600083815260200190815260200160002060006101000a81548173ffffffffffffffffffffffffffffffffffffffff021916908373ffffffffffffffffffffffffffffffffffffffff160217905550808273ffffffffffffffffffffffffffffffffffffffff16611dde83611066565b73ffffffffffffffffffffffffffffffffffffffff167f8c5be1e5ebec7d5bd14f71427d1e84f3dd0314c0f7b2291e5b200ac8c7c3b92560405160405180910390a45050565b6000611e328260000161265f565b9050919050565b6000611e4482611d46565b611e99576040517f08c379a000000000000000000000000000000000000000000000000000000000815260040180806020018281038252602c815260200180613139602c913960400191505060405180910390fd5b6000611ea483611066565b90508073ffffffffffffffffffffffffffffffffffffffff168473ffffffffffffffffffffffffffffffffffffffff161480611f1357508373ffffffffffffffffffffffffffffffffffffffff16611efb84610bfa565b73ffffffffffffffffffffffffffffffffffffffff16145b80611f245750611f238185611aa2565b5b91505092915050565b8273ffffffffffffffffffffffffffffffffffffffff16611f4d82611066565b73ffffffffffffffffffffffffffffffffffffffff1614611fb9576040517f08c379a000000000000000000000000000000000000000000000000000000000815260040180806020018281038252602981526020018061326a6029913960400191505060405180910390fd5b600073ffffffffffffffffffffffffffffffffffffffff168273ffffffffffffffffffffffffffffffffffffffff16141561203f576040517f08c379a00000000000000000000000000000000000000000000000000000000081526004018080602001828103825260248152602001806131156024913960400191505060405180910390fd5b61204a838383612670565b612055600082611d6b565b6120a681600160008673ffffffffffffffffffffffffffffffffffffffff1673ffffffffffffffffffffffffffffffffffffffff16815260200190815260200160002061267590919063ffffffff16565b506120f881600160008573ffffffffffffffffffffffffffffffffffffffff1673ffffffffffffffffffffffffffffffffffffffff16815260200190815260200160002061268f90919063ffffffff16565b5061210f818360026126a99092919063ffffffff16565b50808273ffffffffffffffffffffffffffffffffffffffff168473ffffffffffffffffffffffffffffffffffffffff167fddf252ad1be2c89b69c2b068fc378daa952ba7f163c4a11628f55a4df523b3ef60405160405180910390a4505050565b600061217f83600001836126de565b60001c905092915050565b60008060008061219d8660000186612761565b915091508160001c8160001c9350935050509250929050565b6001816000016000828254019250508190555050565b600081600001549050919050565b600073ffffffffffffffffffffffffffffffffffffffff168273ffffffffffffffffffffffffffffffffffffffff16141561227d576040517f08c379a00000000000000000000000000000000000000000000000000000000081526004018080602001828103825260208152602001807f4552433732313a206d696e7420746f20746865207a65726f206164647265737381525060200191505060405180910390fd5b61228681611d46565b156122f9576040517f08c379a000000000000000000000000000000000000000000000000000000000815260040180806020018281038252601c8152602001807f4552433732313a20746f6b656e20616c7265616479206d696e7465640000000081525060200191505060405180910390fd5b61230560008383612670565b61235681600160008573ffffffffffffffffffffffffffffffffffffffff1673ffffffffffffffffffffffffffffffffffffffff16815260200190815260200160002061268f90919063ffffffff16565b5061236d818360026126a99092919063ffffffff16565b50808273ffffffffffffffffffffffffffffffffffffffff16600073ffffffffffffffffffffffffffffffffffffffff167fddf252ad1be2c89b69c2b068fc378daa952ba7f163c4a11628f55a4df523b3ef60405160405180910390a45050565b6123d782611d46565b61242c576040517f08c379a000000000000000000000000000000000000000000000000000000000815260040180806020018281038252602c81526020018061323e602c913960400191505060405180910390fd5b80600860008481526020019081526020016000209080519060200190612453929190612ffd565b505050565b600061246b846000018460001b846127fa565b60001c90509392505050565b6000612485826000016128f0565b9050919050565b612497848484611f2d565b6124a384848484612901565b6124f8576040517f08c379a00000000000000000000000000000000000000000000000000000000081526004018080602001828103825260328152602001806130bd6032913960400191505060405180910390fd5b50505050565b60606000821415612546576040518060400160405280600181526020017f30000000000000000000000000000000000000000000000000000000000000008152509050612640565b600082905060005b60008214612570578080600101915050600a828161256857fe5b04915061254e565b60608167ffffffffffffffff8111801561258957600080fd5b506040519080825280601f01601f1916602001820160405280156125bc5781602001600182028036833780820191505090505b50905060006001830390508593505b6000841461263857600a84816125dd57fe5b0660300160f81b828280600190039350815181106125f757fe5b60200101907effffffffffffffffffffffffffffffffffffffffffffffffffffffffffffff1916908160001a905350600a848161263057fe5b0493506125cb565b819450505050505b919050565b6000612657836000018360001b612b1a565b905092915050565b600081600001805490509050919050565b505050565b6000612687836000018360001b612b3d565b905092915050565b60006126a1836000018360001b612c25565b905092915050565b60006126d5846000018460001b8473ffffffffffffffffffffffffffffffffffffffff1660001b612c95565b90509392505050565b60008183600001805490501161273f576040517f08c379a000000000000000000000000000000000000000000000000000000000815260040180806020018281038252602281526020018061309b6022913960400191505060405180910390fd5b82600001828154811061274e57fe5b9060005260206000200154905092915050565b600080828460000180549050116127c3576040517f08c379a00000000000000000000000000000000000000000000000000000000081526004018080602001828103825260228152602001806131f06022913960400191505060405180910390fd5b60008460000184815481106127d457fe5b906000526020600020906002020190508060000154816001015492509250509250929050565b600080846001016000858152602001908152602001600020549050600081141583906128c1576040517f08c379a00000000000000000000000000000000000000000000000000000000081526004018080602001828103825283818151815260200191508051906020019080838360005b8381101561288657808201518184015260208101905061286b565b50505050905090810190601f1680156128b35780820380516001836020036101000a031916815260200191505b509250505060405180910390fd5b508460000160018203815481106128d457fe5b9060005260206000209060020201600101549150509392505050565b600081600001805490509050919050565b60006129228473ffffffffffffffffffffffffffffffffffffffff16612d71565b61292f5760019050612b12565b6060612a9963150b7a0260e01b612944611d63565b888787604051602401808573ffffffffffffffffffffffffffffffffffffffff1681526020018473ffffffffffffffffffffffffffffffffffffffff16815260200183815260200180602001828103825283818151815260200191508051906020019080838360005b838110156129c85780820151818401526020810190506129ad565b50505050905090810190601f1680156129f55780820380516001836020036101000a031916815260200191505b5095505050505050604051602081830303815290604052907bffffffffffffffffffffffffffffffffffffffffffffffffffffffff19166020820180517bffffffffffffffffffffffffffffffffffffffffffffffffffffffff83818316178352505050506040518060600160405280603281526020016130bd603291398773ffffffffffffffffffffffffffffffffffffffff16612dbc9092919063ffffffff16565b90506000818060200190516020811015612ab257600080fd5b8101908080519060200190929190505050905063150b7a0260e01b7bffffffffffffffffffffffffffffffffffffffffffffffffffffffff1916817bffffffffffffffffffffffffffffffffffffffffffffffffffffffff191614925050505b949350505050565b600080836001016000848152602001908152602001600020541415905092915050565b60008083600101600084815260200190815260200160002054905060008114612c195760006001820390506000600186600001805490500390506000866000018281548110612b8857fe5b9060005260206000200154905080876000018481548110612ba557fe5b9060005260206000200181905550600183018760010160008381526020019081526020016000208190555086600001805480612bdd57fe5b60019003818190600052602060002001600090559055866001016000878152602001908152602001600020600090556001945050505050612c1f565b60009150505b92915050565b6000612c318383612dd4565b612c8a578260000182908060018154018082558091505060019003906000526020600020016000909190919091505582600001805490508360010160008481526020019081526020016000208190555060019050612c8f565b600090505b92915050565b6000808460010160008581526020019081526020016000205490506000811415612d3c57846000016040518060400160405280868152602001858152509080600181540180825580915050600190039060005260206000209060020201600090919091909150600082015181600001556020820151816001015550508460000180549050856001016000868152602001908152602001600020819055506001915050612d6a565b82856000016001830381548110612d4f57fe5b90600052602060002090600202016001018190555060009150505b9392505050565b60008060007fc5d2460186f7233c927e7db2dcc703c0e500b653ca82273b7bfad8045d85a47060001b9050833f9150808214158015612db357506000801b8214155b92505050919050565b6060612dcb8484600085612df7565b90509392505050565b600080836001016000848152602001908152602001600020541415905092915050565b6060612e0285612d71565b612e74576040517f08c379a000000000000000000000000000000000000000000000000000000000815260040180806020018281038252601d8152602001807f416464726573733a2063616c6c20746f206e6f6e2d636f6e747261637400000081525060200191505060405180910390fd5b600060608673ffffffffffffffffffffffffffffffffffffffff1685876040518082805190602001908083835b60208310612ec45780518252602082019150602081019050602083039250612ea1565b6001836020036101000a03801982511681845116808217855250505050505090500191505060006040518083038185875af1925050503d8060008114612f26576040519150601f19603f3d011682016040523d82523d6000602084013e612f2b565b606091505b50915091508115612f40578092505050612ff5565b600081511115612f535780518082602001fd5b836040517f08c379a00000000000000000000000000000000000000000000000000000000081526004018080602001828103825283818151815260200191508051906020019080838360005b83811015612fba578082015181840152602081019050612f9f565b50505050905090810190601f168015612fe75780820380516001836020036101000a031916815260200191505b509250505060405180910390fd5b949350505050565b828054600181600116156101000203166002900490600052602060002090601f016020900481019282601f1061303e57805160ff191683800117855561306c565b8280016001018555821561306c579182015b8281111561306b578251825591602001919060010190613050565b5b509050613079919061307d565b5090565b5b8082111561309657600081600090555060010161307e565b509056fe456e756d657261626c655365743a20696e646578206f7574206f6620626f756e64734552433732313a207472616e7366657220746f206e6f6e20455243373231526563656976657220696d706c656d656e7465724f776e61626c653a206e6577206f776e657220697320746865207a65726f20616464726573734552433732313a207472616e7366657220746f20746865207a65726f20616464726573734552433732313a206f70657261746f7220717565727920666f72206e6f6e6578697374656e7420746f6b656e4552433732313a20617070726f76652063616c6c6572206973206e6f74206f776e6572206e6f7220617070726f76656420666f7220616c6c4552433732313a2062616c616e636520717565727920666f7220746865207a65726f20616464726573734552433732313a206f776e657220717565727920666f72206e6f6e6578697374656e7420746f6b656e456e756d657261626c654d61703a20696e646578206f7574206f6620626f756e64734552433732313a20617070726f76656420717565727920666f72206e6f6e6578697374656e7420746f6b656e4552433732314d657461646174613a2055524920736574206f66206e6f6e6578697374656e7420746f6b656e4552433732313a207472616e73666572206f6620746f6b656e2074686174206973206e6f74206f776e4552433732314d657461646174613a2055524920717565727920666f72206e6f6e6578697374656e7420746f6b656e4552433732313a20617070726f76616c20746f2063757272656e74206f776e65724552433732313a207472616e736665722063616c6c6572206973206e6f74206f776e6572206e6f7220617070726f7665644e6f7420656e6f75676820506f6c79676f6e2073656e743b20636865636b20707269636521a2646970667358221220053bab25bdcf369f074f4fc433c7a95fe7beea15cf807cda424d9e1ba3e692cf64736f6c6343000703003368747470733a2f2f676174657761792e70696e6174612e636c6f75642f697066732f516d58344c74366e3358756a614444324c3761595376435a77466e7a663543444d4a526551737053733639714d5268747470733a2f2f676174657761792e70696e6174612e636c6f75642f697066732f516d61696e4569736b57395953574d63366b42426f674e466a55693677576251456b444b71464e7432736174637568747470733a2f2f676174657761792e70696e6174612e636c6f75642f697066732f516d63777656756a594a4865444c646242396d6e3172666535674b73754766634d705067596b4333385876624a5368747470733a2f2f676174657761792e70696e6174612e636c6f75642f697066732f516d64744e547a725466636443556177396e695a574c6b315a5463755a5234366966323977794232476b7766465068747470733a2f2f676174657761792e70696e6174612e636c6f75642f697066732f516d6563534e6d64504a5534724838327372343951466f32685371787a705365343279746b777838375169414a35",
  "linkReferences": {},
  "deployedLinkReferences": {}
}